{"abi":[{"type":"function","name":"HAPPINESS_DECAY_RATE","inputs":[],"outputs":[{"name":"","type":"uint256","internalType":"uint256"}],"stateMutability":"view"},{"type":"function","name":"HUNGER_INCREASE_RATE","inputs":[],"outputs":[{"name":"","type":"uint256","internalType":"uint256"}],"stateMutability":"view"},{"type":"function","name":"createPet","inputs":[{"name":"_name","type":"string","internalType":"string"}],"outputs":[],"stateMutability":"nonpayable"},{"type":"function","name":"feedPet","inputs":[],"outputs":[],"stateMutability":"nonpayable"},{"type":"function","name":"getPetStats","inputs":[{"name":"owner","type":"address","internalType":"address"}],"outputs":[{"name":"name","type":"string","internalType":"string"},{"name":"level","type":"uint256","internalType":"uint256"},{"name":"experience","type":"uint256","internalType":"uint256"},{"name":"happiness","type":"uint256","internalType":"uint256"},{"name":"hunger","type":"uint256","internalType":"uint256"},{"name":"isAlive","type":"bool","internalType":"bool"}],"stateMutability":"view"},{"type":"function","name":"hasPet","inputs":[{"name":"","type":"address","internalType":"address"}],"outputs":[{"name":"","type":"bool","internalType":"bool"}],"stateMutability":"view"},{"type":"function","name":"pets","inputs":[{"name":"","type":"address","internalType":"address"}],"outputs":[{"name":"name","type":"string","internalType":"string"},{"name":"level","type":"uint256","internalType":"uint256"},{"name":"experience","type":"uint256","internalType":"uint256"},{"name":"lastHappiness","type":"uint256","internalType":"uint256"},{"name":"lastHunger","type":"uint256","internalType":"uint256"},{"name":"lastFed","type":"uint256","internalType":"uint256"},{"name":"lastPlayed","type":"uint256","internalType":"uint256"},{"name":"birthTime","type":"uint256","internalType":"uint256"},{"name":"isAlive","type":"bool","internalType":"bool"}],"stateMutability":"view"},{"type":"function","name":"playWithPet","inputs":[],"outputs":[],"stateMutability":"nonpayable"},{"type":"event","name":"PetCreated","inputs":[{"name":"owner","type":"address","indexed":true,"internalType":"address"},{"name":"name","type":"string","indexed":false,"internalType":"string"}],"anonymous":false},{"type":"event","name":"PetFed","inputs":[{"name":"owner","type":"address","indexed":true,"internalType":"address"},{"name":"newHunger","type":"uint256","indexed":false,"internalType":"uint256"}],"anonymous":false},{"type":"event","name":"PetLevelUp","inputs":[{"name":"owner","type":"address","indexed":true,"internalType":"address"},{"name":"newLevel","type":"uint256","indexed":false,"internalType":"uint256"}],"anonymous":false},{"type":"event","name":"PetPlayed","inputs":[{"name":"owner","type":"address","indexed":true,"internalType":"address"},{"name":"newHappiness","type":"uint256","indexed":false,"internalType":"uint256"}],"anonymous":false}],"bytecode":{"object":"0x6080806040523461001657610ef7908161001b8239f35b5f80fdfe60806040526004361015610011575f80fd5b60e05f35811c8063088f0fb914610ace57806327ef7dec146109255780633458980d146109095780634fbbecc61461076157806377d6fc431461054d5780637962913a1461050c578063c306dd0b146104f05763d3816bac14610072575f80fd5b346104ec5760203660031901126104ec576004359067ffffffffffffffff82116104ec57366023830112156104ec57816004013567ffffffffffffffff811161031957604051926100cd601f8301601f191660200185610bd5565b81845236602483830101116104ec57815f9260246020930183870137840101528151156104b057335f52600160205260ff60405f20541661032d575b6040519061011682610bb8565b828252600160208301525f6040830152606460608301525f60808301524260a08301524260c083015242818301526001610100830152335f525f60205260405f2090825180519067ffffffffffffffff8211610319576101768454610b80565b601f81116102d8575b50602090601f831160011461026b5791806008949261010096945f92610260575b50508160011b915f199060031b1c19161782555b6020850151600183015560408501516002830155606085015160038301556080850151600483015560a0850151600583015560c0850151600683015584015160078201550191015115159060ff199160ff838354169116179055335f526001602052600160405f20918254161790557f243720defc8f10ed8fffc2851c459e1e21c1895299b80b2f6b8227b51cd8a17b604051602081528061025b33946020830190610c99565b0390a2005b015190505f806101a0565b90845f5260205f20915f5b601f19851681106102c057509260089492600192610100979583601f198116106102a8575b505050811b0182556101b4565b01515f1960f88460031b161c191690555f808061029b565b91926020600181928685015181550194019201610276565b845f5260205f20601f840160051c810160208510610312575b601f830160051c8201811061030757505061017f565b5f81556001016102f1565b50806102f1565b634e487b7160e01b5f52604160045260245ffd5b5f60205260405f2060405161034181610bb8565b61034a82610bf7565b8152600182015460208201526002820154604082015260038201549060608101918252611c206103c26103ba600486015493608081019485526005870154908160a082015261010060ff600860068b01549a60c085019b8c5260078101548d860152015416151591015242610d1a565b945142610d1a565b930490600a820291808304600a14901517156104885760646103e5838351610d27565b111561049c575050610e106064925b0490600a820291808304600a149015171561048857518181101561047657505060645f915b109081159161046d575b506101095760405162461bcd60e51b815260206004820152601f60248201527f596f75722063757272656e7420706574206973207374696c6c20616c697665006044820152606490fd5b9050155f610423565b60649161048291610d1a565b91610419565b634e487b7160e01b5f52601160045260245ffd5b610e10916104aa9151610d27565b926103f4565b60405162461bcd60e51b81526020600482015260146024820152734e616d652063616e6e6f7420626520656d70747960601b6044820152606490fd5b5f80fd5b346104ec575f3660031901126104ec576020604051611c208152f35b346104ec5760203660031901126104ec576004356001600160a01b038116908190036104ec575f526001602052602060ff60405f2054166040519015158152f35b50346104ec575f3660031901126104ec57335f52600160205261057660ff60405f205416610cd7565b335f525f60205260405f209060405161058e81610bb8565b61059783610bf7565b81526001830154602082015260028301546040820152600383015492606082019384526101006004820154926080810193845260ff600860058501549460a0840195865260068101549760c08501988952600782015490850152015416151591829101525f1461071c5761061a610612611c20925142610d1a565b935142610d1a565b920490600a820291808304600a149015171561048857606461063d838351610d27565b1115610708575050610e106064915b04600a810290808204600a14901517156104885761068392518181105f146106f657505060645f915b1090816106ec575b50610d34565b335f525f602052600260405f2061069933610d3b565b5f600482015542600582015501805490600a820180921161048857556106be33610e2d565b6040515f81527f9ef3ef96a69917dbd3b0809769d9f6728750e08ab778d8fbf3ea05b2ac7a943860203392a2005b905015155f61067d565b60649161070291610d1a565b91610675565b610e10916107169151610d27565b9161064c565b60405162461bcd60e51b815260206004820152601d60248201527f596f757220706574206973206e6f206c6f6e67657220776974682075730000006044820152606490fd5b50346104ec5760203660031901126104ec576004356001600160a01b038116908190036104ec575f525f60205260405f2090604051916107a083610bb8565b6107a981610bf7565b8352600181015491602084019283526002820154916040850192835260038101549060608601958287526004820154936080820185815260ff60086005860154958660a087015260068101549460c087019586526007820154908701520154161515958661010085015294938661085c575b50505061083c9650519451935160405196879660c0885260c0880190610c99565b946020870152604086015260608501526080840152151560a08301520390f35b611c2093965061087492955061061291945042610d1a565b9204600a810290808204600a1490151715610488576064610896828451610d27565b11156108fa57505060645b610e10819204600a810290808204600a149015171561048857955161083c96808210156108ec5750505f5b606481921090816108e2575b50925f808061081b565b905015155f6108d8565b6108f591610d1a565b6108cc565b6109049151610d27565b6108a1565b346104ec575f3660031901126104ec576020604051610e108152f35b50346104ec575f3660031901126104ec57335f52600160205261094e60ff60405f205416610cd7565b335f525f60205260405f209060405161096681610bb8565b61096f83610bf7565b81526001830154602082015260028301546040820152600383015492606082019384526101006004820154926080810193845260ff600860058501549460a0840195865260068101549760c08501988952600782015490850152015416151591829101525f1461071c576109ea610612611c20925142610d1a565b920490600a820291808304600a1490151715610488576064610a0d838351610d27565b1115610aba575050610e106064915b04600a810290808204600a149015171561048857610a4f92518181105f146106f65750506064115f816106ec5750610d34565b335f525f602052600260405f20610a6533610d3b565b6064600382015542600682015501805490600582018092116104885755610a8b33610e2d565b604051606481527f9be748471e36d64a468ccf573f911ad424eb9a981e369dfcbd3b88a0b1dd5fd260203392a2005b610e1091610ac89151610d27565b91610a1c565b50346104ec5760203660031901126104ec576004356001600160a01b03811691908290036104ec57610b52915f525f60205260405f20610b0d81610bf7565b916001820154916002810154916003820154600483015460058401549060068501549260ff6008600788015497015416966040519a8b9a610120808d528c0190610c99565b9860208b015260408a01526060890152608088015260a087015260c086015284015215156101008301520390f35b90600182811c92168015610bae575b6020831014610b9a57565b634e487b7160e01b5f52602260045260245ffd5b91607f1691610b8f565b610120810190811067ffffffffffffffff82111761031957604052565b90601f8019910116810190811067ffffffffffffffff82111761031957604052565b9060405191825f8254610c0981610b80565b908184526020946001916001811690815f14610c775750600114610c39575b505050610c3792500383610bd5565b565b5f90815285812095935091905b818310610c5f575050610c3793508201015f8080610c28565b85548884018501529485019487945091830191610c46565b92505050610c3794925060ff191682840152151560051b8201015f8080610c28565b91908251928382525f5b848110610cc3575050825f602080949584010152601f8019910116010190565b602081830181015184830182015201610ca3565b15610cde57565b60405162461bcd60e51b8152602060048201526014602482015273165bdd48191bdb89dd081a185d994818481c195d60621b6044820152606490fd5b9190820391821161048857565b9190820180921161048857565b1561071c57565b6001600160a01b03165f908152602081905260409020600881018054909160ff821615610e2857610d70600582015442610d1a565b90611c20610d82600683015442610d1a565b9204600a810290808204600a14901517156104885760048201546064610da88383610d27565b1115610e15575050610e106064925b0490600a820291808304600a1490151715610488576003015481811015610e0357505060645f915b1090811591610dfa575b50610df2575050565b60ff19169055565b9050155f610de9565b606491610e0f91610d1a565b91610ddf565b610e1091610e2291610d27565b92610db7565b505050565b60018060a01b0316805f525f60205260405f20600181018054906064820292828404606414831517156104885760020180549284841015610e71575b505050505050565b5f198114610488577f2adc0db93e4f42d209f1a543b6466237c9cea8a5c8c2a205188eb1ab480bd7f2946020946001610ead9301809555610d1a565b9055604051908152a25f8080808080610e6956fea2646970667358221220d78586500aa40f290597d18f2f317381a9b7a3f5a9f6c98012566576483cf4f364736f6c63430008170033","linkReferences":{}},"methodIdentifiers":{"HAPPINESS_DECAY_RATE()":"3458980d","HUNGER_INCREASE_RATE()":"c306dd0b","createPet(string)":"d3816bac","feedPet()":"77d6fc43","getPetStats(address)":"4fbbecc6","hasPet(address)":"7962913a","pets(address)":"088f0fb9","playWithPet()":"27ef7dec"},"id":26}